{
  "_format": "hh-sol-artifact-1",
  "contractName": "Lifeblocs",
  "sourceName": "contracts/Lifeblocs.sol",
  "abi": [
    {
      "inputs": [
        {
          "internalType": "address",
          "name": "_owner",
          "type": "address"
        }
      ],
      "stateMutability": "payable",
      "type": "constructor"
    },
    {
      "anonymous": false,
      "inputs": [
        {
          "indexed": true,
          "internalType": "address",
          "name": "owner",
          "type": "address"
        },
        {
          "indexed": true,
          "internalType": "address",
          "name": "approved",
          "type": "address"
        },
        {
          "indexed": true,
          "internalType": "uint256",
          "name": "tokenId",
          "type": "uint256"
        }
      ],
      "name": "Approval",
      "type": "event"
    },
    {
      "anonymous": false,
      "inputs": [
        {
          "indexed": true,
          "internalType": "address",
          "name": "owner",
          "type": "address"
        },
        {
          "indexed": true,
          "internalType": "address",
          "name": "operator",
          "type": "address"
        },
        {
          "indexed": false,
          "internalType": "bool",
          "name": "approved",
          "type": "bool"
        }
      ],
      "name": "ApprovalForAll",
      "type": "event"
    },
    {
      "anonymous": false,
      "inputs": [
        {
          "indexed": true,
          "internalType": "address",
          "name": "previousOwner",
          "type": "address"
        },
        {
          "indexed": true,
          "internalType": "address",
          "name": "newOwner",
          "type": "address"
        }
      ],
      "name": "OwnershipTransferred",
      "type": "event"
    },
    {
      "anonymous": false,
      "inputs": [
        {
          "indexed": true,
          "internalType": "address",
          "name": "from",
          "type": "address"
        },
        {
          "indexed": true,
          "internalType": "address",
          "name": "to",
          "type": "address"
        },
        {
          "indexed": true,
          "internalType": "uint256",
          "name": "tokenId",
          "type": "uint256"
        }
      ],
      "name": "Transfer",
      "type": "event"
    },
    {
      "inputs": [
        {
          "internalType": "uint256",
          "name": "",
          "type": "uint256"
        }
      ],
      "name": "_blocs",
      "outputs": [
        {
          "internalType": "uint256",
          "name": "tokenId",
          "type": "uint256"
        },
        {
          "internalType": "string",
          "name": "emoji",
          "type": "string"
        },
        {
          "internalType": "string",
          "name": "label",
          "type": "string"
        },
        {
          "internalType": "string",
          "name": "description",
          "type": "string"
        },
        {
          "internalType": "uint256",
          "name": "createdAt",
          "type": "uint256"
        },
        {
          "internalType": "bool",
          "name": "exist",
          "type": "bool"
        }
      ],
      "stateMutability": "view",
      "type": "function"
    },
    {
      "inputs": [
        {
          "internalType": "address",
          "name": "to",
          "type": "address"
        },
        {
          "internalType": "uint256",
          "name": "tokenId",
          "type": "uint256"
        }
      ],
      "name": "approve",
      "outputs": [],
      "stateMutability": "nonpayable",
      "type": "function"
    },
    {
      "inputs": [
        {
          "internalType": "address",
          "name": "owner",
          "type": "address"
        }
      ],
      "name": "balanceOf",
      "outputs": [
        {
          "internalType": "uint256",
          "name": "",
          "type": "uint256"
        }
      ],
      "stateMutability": "view",
      "type": "function"
    },
    {
      "inputs": [
        {
          "internalType": "uint256",
          "name": "tokenId",
          "type": "uint256"
        }
      ],
      "name": "burn",
      "outputs": [],
      "stateMutability": "nonpayable",
      "type": "function"
    },
    {
      "inputs": [
        {
          "internalType": "uint256",
          "name": "tokenId",
          "type": "uint256"
        }
      ],
      "name": "getApproved",
      "outputs": [
        {
          "internalType": "address",
          "name": "",
          "type": "address"
        }
      ],
      "stateMutability": "view",
      "type": "function"
    },
    {
      "inputs": [],
      "name": "getMyBlocs",
      "outputs": [
        {
          "components": [
            {
              "internalType": "uint256",
              "name": "tokenId",
              "type": "uint256"
            },
            {
              "internalType": "string",
              "name": "emoji",
              "type": "string"
            },
            {
              "internalType": "string",
              "name": "label",
              "type": "string"
            },
            {
              "internalType": "string",
              "name": "description",
              "type": "string"
            },
            {
              "internalType": "uint256",
              "name": "createdAt",
              "type": "uint256"
            },
            {
              "internalType": "bool",
              "name": "exist",
              "type": "bool"
            }
          ],
          "internalType": "struct Lifeblocs.Bloc[]",
          "name": "",
          "type": "tuple[]"
        }
      ],
      "stateMutability": "view",
      "type": "function"
    },
    {
      "inputs": [
        {
          "internalType": "address",
          "name": "owner",
          "type": "address"
        },
        {
          "internalType": "address",
          "name": "operator",
          "type": "address"
        }
      ],
      "name": "isApprovedForAll",
      "outputs": [
        {
          "internalType": "bool",
          "name": "",
          "type": "bool"
        }
      ],
      "stateMutability": "view",
      "type": "function"
    },
    {
      "inputs": [],
      "name": "name",
      "outputs": [
        {
          "internalType": "string",
          "name": "",
          "type": "string"
        }
      ],
      "stateMutability": "view",
      "type": "function"
    },
    {
      "inputs": [],
      "name": "owner",
      "outputs": [
        {
          "internalType": "address",
          "name": "",
          "type": "address"
        }
      ],
      "stateMutability": "view",
      "type": "function"
    },
    {
      "inputs": [
        {
          "internalType": "uint256",
          "name": "tokenId",
          "type": "uint256"
        }
      ],
      "name": "ownerOf",
      "outputs": [
        {
          "internalType": "address",
          "name": "",
          "type": "address"
        }
      ],
      "stateMutability": "view",
      "type": "function"
    },
    {
      "inputs": [],
      "name": "renounceOwnership",
      "outputs": [],
      "stateMutability": "nonpayable",
      "type": "function"
    },
    {
      "inputs": [
        {
          "internalType": "address",
          "name": "to",
          "type": "address"
        },
        {
          "internalType": "string",
          "name": "emoji",
          "type": "string"
        },
        {
          "internalType": "string",
          "name": "label",
          "type": "string"
        },
        {
          "internalType": "string",
          "name": "description",
          "type": "string"
        }
      ],
      "name": "safeMint",
      "outputs": [],
      "stateMutability": "nonpayable",
      "type": "function"
    },
    {
      "inputs": [
        {
          "internalType": "address",
          "name": "from",
          "type": "address"
        },
        {
          "internalType": "address",
          "name": "to",
          "type": "address"
        },
        {
          "internalType": "uint256",
          "name": "tokenId",
          "type": "uint256"
        }
      ],
      "name": "safeTransferFrom",
      "outputs": [],
      "stateMutability": "nonpayable",
      "type": "function"
    },
    {
      "inputs": [
        {
          "internalType": "address",
          "name": "from",
          "type": "address"
        },
        {
          "internalType": "address",
          "name": "to",
          "type": "address"
        },
        {
          "internalType": "uint256",
          "name": "tokenId",
          "type": "uint256"
        },
        {
          "internalType": "bytes",
          "name": "data",
          "type": "bytes"
        }
      ],
      "name": "safeTransferFrom",
      "outputs": [],
      "stateMutability": "nonpayable",
      "type": "function"
    },
    {
      "inputs": [
        {
          "internalType": "address",
          "name": "operator",
          "type": "address"
        },
        {
          "internalType": "bool",
          "name": "approved",
          "type": "bool"
        }
      ],
      "name": "setApprovalForAll",
      "outputs": [],
      "stateMutability": "nonpayable",
      "type": "function"
    },
    {
      "inputs": [
        {
          "internalType": "bytes4",
          "name": "interfaceId",
          "type": "bytes4"
        }
      ],
      "name": "supportsInterface",
      "outputs": [
        {
          "internalType": "bool",
          "name": "",
          "type": "bool"
        }
      ],
      "stateMutability": "view",
      "type": "function"
    },
    {
      "inputs": [],
      "name": "symbol",
      "outputs": [
        {
          "internalType": "string",
          "name": "",
          "type": "string"
        }
      ],
      "stateMutability": "view",
      "type": "function"
    },
    {
      "inputs": [
        {
          "internalType": "uint256",
          "name": "tokenId",
          "type": "uint256"
        }
      ],
      "name": "tokenURI",
      "outputs": [
        {
          "internalType": "string",
          "name": "",
          "type": "string"
        }
      ],
      "stateMutability": "view",
      "type": "function"
    },
    {
      "inputs": [
        {
          "internalType": "address",
          "name": "from",
          "type": "address"
        },
        {
          "internalType": "address",
          "name": "to",
          "type": "address"
        },
        {
          "internalType": "uint256",
          "name": "tokenId",
          "type": "uint256"
        }
      ],
      "name": "transferFrom",
      "outputs": [],
      "stateMutability": "nonpayable",
      "type": "function"
    },
    {
      "inputs": [
        {
          "internalType": "address",
          "name": "newOwner",
          "type": "address"
        }
      ],
      "name": "transferOwnership",
      "outputs": [],
      "stateMutability": "nonpayable",
      "type": "function"
    }
  ],
  "bytecode": "0x60806040526040516200405f3803806200405f83398181016040528101906200002991906200037c565b6040518060400160405280600981526020017f4c696665626c6f637300000000000000000000000000000000000000000000008152506040518060400160405280600481526020017f4c494645000000000000000000000000000000000000000000000000000000008152508160009081620000a6919062000628565b508060019081620000b8919062000628565b505050620000db620000cf620000f360201b60201c565b620000fb60201b60201c565b620000ec81620001c160201b60201c565b506200082a565b600033905090565b6000600660009054906101000a900473ffffffffffffffffffffffffffffffffffffffff16905081600660006101000a81548173ffffffffffffffffffffffffffffffffffffffff021916908373ffffffffffffffffffffffffffffffffffffffff1602179055508173ffffffffffffffffffffffffffffffffffffffff168173ffffffffffffffffffffffffffffffffffffffff167f8be0079c531659141344cd1fd0a4f28419497f9722a3daafe3b4186f6b6457e060405160405180910390a35050565b620001d16200025760201b60201c565b600073ffffffffffffffffffffffffffffffffffffffff168173ffffffffffffffffffffffffffffffffffffffff160362000243576040517f08c379a00000000000000000000000000000000000000000000000000000000081526004016200023a9062000796565b60405180910390fd5b6200025481620000fb60201b60201c565b50565b62000267620000f360201b60201c565b73ffffffffffffffffffffffffffffffffffffffff166200028d620002e860201b60201c565b73ffffffffffffffffffffffffffffffffffffffff1614620002e6576040517f08c379a0000000000000000000000000000000000000000000000000000000008152600401620002dd9062000808565b60405180910390fd5b565b6000600660009054906101000a900473ffffffffffffffffffffffffffffffffffffffff16905090565b600080fd5b600073ffffffffffffffffffffffffffffffffffffffff82169050919050565b6000620003448262000317565b9050919050565b620003568162000337565b81146200036257600080fd5b50565b60008151905062000376816200034b565b92915050565b60006020828403121562000395576200039462000312565b5b6000620003a58482850162000365565b91505092915050565b600081519050919050565b7f4e487b7100000000000000000000000000000000000000000000000000000000600052604160045260246000fd5b7f4e487b7100000000000000000000000000000000000000000000000000000000600052602260045260246000fd5b600060028204905060018216806200043057607f821691505b602082108103620004465762000445620003e8565b5b50919050565b60008190508160005260206000209050919050565b60006020601f8301049050919050565b600082821b905092915050565b600060088302620004b07fffffffffffffffffffffffffffffffffffffffffffffffffffffffffffffffff8262000471565b620004bc868362000471565b95508019841693508086168417925050509392505050565b6000819050919050565b6000819050919050565b60006200050962000503620004fd84620004d4565b620004de565b620004d4565b9050919050565b6000819050919050565b6200052583620004e8565b6200053d620005348262000510565b8484546200047e565b825550505050565b600090565b6200055462000545565b620005618184846200051a565b505050565b5b8181101562000589576200057d6000826200054a565b60018101905062000567565b5050565b601f821115620005d857620005a2816200044c565b620005ad8462000461565b81016020851015620005bd578190505b620005d5620005cc8562000461565b83018262000566565b50505b505050565b600082821c905092915050565b6000620005fd60001984600802620005dd565b1980831691505092915050565b6000620006188383620005ea565b9150826002028217905092915050565b6200063382620003ae565b67ffffffffffffffff8111156200064f576200064e620003b9565b5b6200065b825462000417565b620006688282856200058d565b600060209050601f831160018114620006a057600084156200068b578287015190505b6200069785826200060a565b86555062000707565b601f198416620006b0866200044c565b60005b82811015620006da57848901518255600182019150602085019450602081019050620006b3565b86831015620006fa5784890151620006f6601f891682620005ea565b8355505b6001600288020188555050505b505050505050565b600082825260208201905092915050565b7f4f776e61626c653a206e6577206f776e657220697320746865207a65726f206160008201527f6464726573730000000000000000000000000000000000000000000000000000602082015250565b60006200077e6026836200070f565b91506200078b8262000720565b604082019050919050565b60006020820190508181036000830152620007b1816200076f565b9050919050565b7f4f776e61626c653a2063616c6c6572206973206e6f7420746865206f776e6572600082015250565b6000620007f06020836200070f565b9150620007fd82620007b8565b602082019050919050565b600060208201905081810360008301526200082381620007e1565b9050919050565b613825806200083a6000396000f3fe608060405234801561001057600080fd5b506004361061012c5760003560e01c8063715018a6116100ad578063a22cb46511610071578063a22cb46514610334578063b88d4fde14610350578063c87b56dd1461036c578063e985e9c51461039c578063f2fde38b146103cc5761012c565b8063715018a61461029b57806372efa482146102a557806383b3bb46146102da5780638da5cb5b146102f857806395d89b41146103165761012c565b806323b872dd116100f457806323b872dd146101e757806342842e0e1461020357806342966c681461021f5780636352211e1461023b57806370a082311461026b5761012c565b806301ffc9a71461013157806303a80dfb1461016157806306fdde031461017d578063081812fc1461019b578063095ea7b3146101cb575b600080fd5b61014b6004803603810190610146919061234a565b6103e8565b6040516101589190612392565b60405180910390f35b61017b60048036038101906101769190612551565b6104ca565b005b6101856105b7565b604051610192919061268b565b60405180910390f35b6101b560048036038101906101b091906126e3565b610649565b6040516101c2919061271f565b60405180910390f35b6101e560048036038101906101e0919061273a565b61068f565b005b61020160048036038101906101fc919061277a565b6107a6565b005b61021d6004803603810190610218919061277a565b610806565b005b610239600480360381019061023491906126e3565b610826565b005b610255600480360381019061025091906126e3565b6108ec565b604051610262919061271f565b60405180910390f35b610285600480360381019061028091906127cd565b610972565b6040516102929190612809565b60405180910390f35b6102a3610a29565b005b6102bf60048036038101906102ba91906126e3565b610a3d565b6040516102d196959493929190612824565b60405180910390f35b6102e2610c1e565b6040516102ef9190612a5b565b60405180910390f35b610300610f12565b60405161030d919061271f565b60405180910390f35b61031e610f3c565b60405161032b919061268b565b60405180910390f35b61034e60048036038101906103499190612aa9565b610fce565b005b61036a60048036038101906103659190612b8a565b610fe4565b005b610386600480360381019061038191906126e3565b611046565b604051610393919061268b565b60405180910390f35b6103b660048036038101906103b19190612c0d565b6110ae565b6040516103c39190612392565b60405180910390f35b6103e660048036038101906103e191906127cd565b611142565b005b60007f80ac58cd000000000000000000000000000000000000000000000000000000007bffffffffffffffffffffffffffffffffffffffffffffffffffffffff1916827bffffffffffffffffffffffffffffffffffffffffffffffffffffffff191614806104b357507f5b5e139f000000000000000000000000000000000000000000000000000000007bffffffffffffffffffffffffffffffffffffffffffffffffffffffff1916827bffffffffffffffffffffffffffffffffffffffffffffffffffffffff1916145b806104c357506104c2826111c5565b5b9050919050565b6104d261122f565b60006104de60086112ad565b90506104ea60086112bb565b6104f485826112d1565b6040518060c0016040528082815260200185815260200184815260200183815260200142815260200160011515815250600760008381526020019081526020016000206000820151816000015560208201518160010190816105569190612e59565b50604082015181600201908161056c9190612e59565b5060608201518160030190816105829190612e59565b506080820151816004015560a08201518160050160006101000a81548160ff0219169083151502179055509050505050505050565b6060600080546105c690612c7c565b80601f01602080910402602001604051908101604052809291908181526020018280546105f290612c7c565b801561063f5780601f106106145761010080835404028352916020019161063f565b820191906000526020600020905b81548152906001019060200180831161062257829003601f168201915b5050505050905090565b6000610654826112ef565b6004600083815260200190815260200160002060009054906101000a900473ffffffffffffffffffffffffffffffffffffffff169050919050565b600061069a826108ec565b90508073ffffffffffffffffffffffffffffffffffffffff168373ffffffffffffffffffffffffffffffffffffffff160361070a576040517f08c379a000000000000000000000000000000000000000000000000000000000815260040161070190612f9d565b60405180910390fd5b8073ffffffffffffffffffffffffffffffffffffffff1661072961133a565b73ffffffffffffffffffffffffffffffffffffffff16148061075857506107578161075261133a565b6110ae565b5b610797576040517f08c379a000000000000000000000000000000000000000000000000000000000815260040161078e9061302f565b60405180910390fd5b6107a18383611342565b505050565b6107b76107b161133a565b826113fb565b6107f6576040517f08c379a00000000000000000000000000000000000000000000000000000000081526004016107ed906130c1565b60405180910390fd5b610801838383611490565b505050565b61082183838360405180602001604052806000815250610fe4565b505050565b61083761083161133a565b826113fb565b610876576040517f08c379a000000000000000000000000000000000000000000000000000000000815260040161086d906130c1565b60405180910390fd5b600760008281526020019081526020016000206000808201600090556001820160006108a29190612249565b6002820160006108b29190612249565b6003820160006108c29190612249565b60048201600090556005820160006101000a81549060ff021916905550506108e981611789565b50565b6000806108f8836118d7565b9050600073ffffffffffffffffffffffffffffffffffffffff168173ffffffffffffffffffffffffffffffffffffffff1603610969576040517f08c379a00000000000000000000000000000000000000000000000000000000081526004016109609061312d565b60405180910390fd5b80915050919050565b60008073ffffffffffffffffffffffffffffffffffffffff168273ffffffffffffffffffffffffffffffffffffffff16036109e2576040517f08c379a00000000000000000000000000000000000000000000000000000000081526004016109d9906131bf565b60405180910390fd5b600360008373ffffffffffffffffffffffffffffffffffffffff1673ffffffffffffffffffffffffffffffffffffffff168152602001908152602001600020549050919050565b610a3161122f565b610a3b6000611914565b565b6007602052806000526040600020600091509050806000015490806001018054610a6690612c7c565b80601f0160208091040260200160405190810160405280929190818152602001828054610a9290612c7c565b8015610adf5780601f10610ab457610100808354040283529160200191610adf565b820191906000526020600020905b815481529060010190602001808311610ac257829003601f168201915b505050505090806002018054610af490612c7c565b80601f0160208091040260200160405190810160405280929190818152602001828054610b2090612c7c565b8015610b6d5780601f10610b4257610100808354040283529160200191610b6d565b820191906000526020600020905b815481529060010190602001808311610b5057829003601f168201915b505050505090806003018054610b8290612c7c565b80601f0160208091040260200160405190810160405280929190818152602001828054610bae90612c7c565b8015610bfb5780601f10610bd057610100808354040283529160200191610bfb565b820191906000526020600020905b815481529060010190602001808311610bde57829003601f168201915b5050505050908060040154908060050160009054906101000a900460ff16905086565b6060600060086000015467ffffffffffffffff811115610c4157610c40612426565b5b604051908082528060200260200182016040528015610c7a57816020015b610c67612289565b815260200190600190039081610c5f5790505b50905060005b600860000154811015610f0a576007600082815260200190815260200160002060050160009054906101000a900460ff168015610cca5750610cc9610cc361133a565b826113fb565b5b15610ef7576000600760008381526020019081526020016000209050806040518060c001604052908160008201548152602001600182018054610d0c90612c7c565b80601f0160208091040260200160405190810160405280929190818152602001828054610d3890612c7c565b8015610d855780601f10610d5a57610100808354040283529160200191610d85565b820191906000526020600020905b815481529060010190602001808311610d6857829003601f168201915b50505050508152602001600282018054610d9e90612c7c565b80601f0160208091040260200160405190810160405280929190818152602001828054610dca90612c7c565b8015610e175780601f10610dec57610100808354040283529160200191610e17565b820191906000526020600020905b815481529060010190602001808311610dfa57829003601f168201915b50505050508152602001600382018054610e3090612c7c565b80601f0160208091040260200160405190810160405280929190818152602001828054610e5c90612c7c565b8015610ea95780601f10610e7e57610100808354040283529160200191610ea9565b820191906000526020600020905b815481529060010190602001808311610e8c57829003601f168201915b50505050508152602001600482015481526020016005820160009054906101000a900460ff161515151581525050838381518110610eea57610ee96131df565b5b6020026020010181905250505b8080610f029061323d565b915050610c80565b508091505090565b6000600660009054906101000a900473ffffffffffffffffffffffffffffffffffffffff16905090565b606060018054610f4b90612c7c565b80601f0160208091040260200160405190810160405280929190818152602001828054610f7790612c7c565b8015610fc45780601f10610f9957610100808354040283529160200191610fc4565b820191906000526020600020905b815481529060010190602001808311610fa757829003601f168201915b5050505050905090565b610fe0610fd961133a565b83836119da565b5050565b610ff5610fef61133a565b836113fb565b611034576040517f08c379a000000000000000000000000000000000000000000000000000000000815260040161102b906130c1565b60405180910390fd5b61104084848484611b46565b50505050565b6060611051826112ef565b600061105b611ba2565b9050600081511161107b57604051806020016040528060008152506110a6565b8061108584611bb9565b6040516020016110969291906132c1565b6040516020818303038152906040525b915050919050565b6000600560008473ffffffffffffffffffffffffffffffffffffffff1673ffffffffffffffffffffffffffffffffffffffff16815260200190815260200160002060008373ffffffffffffffffffffffffffffffffffffffff1673ffffffffffffffffffffffffffffffffffffffff16815260200190815260200160002060009054906101000a900460ff16905092915050565b61114a61122f565b600073ffffffffffffffffffffffffffffffffffffffff168173ffffffffffffffffffffffffffffffffffffffff16036111b9576040517f08c379a00000000000000000000000000000000000000000000000000000000081526004016111b090613357565b60405180910390fd5b6111c281611914565b50565b60007f01ffc9a7000000000000000000000000000000000000000000000000000000007bffffffffffffffffffffffffffffffffffffffffffffffffffffffff1916827bffffffffffffffffffffffffffffffffffffffffffffffffffffffff1916149050919050565b61123761133a565b73ffffffffffffffffffffffffffffffffffffffff16611255610f12565b73ffffffffffffffffffffffffffffffffffffffff16146112ab576040517f08c379a00000000000000000000000000000000000000000000000000000000081526004016112a2906133c3565b60405180910390fd5b565b600081600001549050919050565b6001816000016000828254019250508190555050565b6112eb828260405180602001604052806000815250611c87565b5050565b6112f881611ce2565b611337576040517f08c379a000000000000000000000000000000000000000000000000000000000815260040161132e9061312d565b60405180910390fd5b50565b600033905090565b816004600083815260200190815260200160002060006101000a81548173ffffffffffffffffffffffffffffffffffffffff021916908373ffffffffffffffffffffffffffffffffffffffff160217905550808273ffffffffffffffffffffffffffffffffffffffff166113b5836108ec565b73ffffffffffffffffffffffffffffffffffffffff167f8c5be1e5ebec7d5bd14f71427d1e84f3dd0314c0f7b2291e5b200ac8c7c3b92560405160405180910390a45050565b600080611407836108ec565b90508073ffffffffffffffffffffffffffffffffffffffff168473ffffffffffffffffffffffffffffffffffffffff161480611449575061144881856110ae565b5b8061148757508373ffffffffffffffffffffffffffffffffffffffff1661146f84610649565b73ffffffffffffffffffffffffffffffffffffffff16145b91505092915050565b8273ffffffffffffffffffffffffffffffffffffffff166114b0826108ec565b73ffffffffffffffffffffffffffffffffffffffff1614611506576040517f08c379a00000000000000000000000000000000000000000000000000000000081526004016114fd90613455565b60405180910390fd5b600073ffffffffffffffffffffffffffffffffffffffff168273ffffffffffffffffffffffffffffffffffffffff1603611575576040517f08c379a000000000000000000000000000000000000000000000000000000000815260040161156c906134e7565b60405180910390fd5b6115828383836001611d23565b8273ffffffffffffffffffffffffffffffffffffffff166115a2826108ec565b73ffffffffffffffffffffffffffffffffffffffff16146115f8576040517f08c379a00000000000000000000000000000000000000000000000000000000081526004016115ef90613455565b60405180910390fd5b6004600082815260200190815260200160002060006101000a81549073ffffffffffffffffffffffffffffffffffffffff02191690556001600360008573ffffffffffffffffffffffffffffffffffffffff1673ffffffffffffffffffffffffffffffffffffffff168152602001908152602001600020600082825403925050819055506001600360008473ffffffffffffffffffffffffffffffffffffffff1673ffffffffffffffffffffffffffffffffffffffff16815260200190815260200160002060008282540192505081905550816002600083815260200190815260200160002060006101000a81548173ffffffffffffffffffffffffffffffffffffffff021916908373ffffffffffffffffffffffffffffffffffffffff160217905550808273ffffffffffffffffffffffffffffffffffffffff168473ffffffffffffffffffffffffffffffffffffffff167fddf252ad1be2c89b69c2b068fc378daa952ba7f163c4a11628f55a4df523b3ef60405160405180910390a46117848383836001611d29565b505050565b6000611794826108ec565b90506117a4816000846001611d23565b6117ad826108ec565b90506004600083815260200190815260200160002060006101000a81549073ffffffffffffffffffffffffffffffffffffffff02191690556001600360008373ffffffffffffffffffffffffffffffffffffffff1673ffffffffffffffffffffffffffffffffffffffff168152602001908152602001600020600082825403925050819055506002600083815260200190815260200160002060006101000a81549073ffffffffffffffffffffffffffffffffffffffff021916905581600073ffffffffffffffffffffffffffffffffffffffff168273ffffffffffffffffffffffffffffffffffffffff167fddf252ad1be2c89b69c2b068fc378daa952ba7f163c4a11628f55a4df523b3ef60405160405180910390a46118d3816000846001611d29565b5050565b60006002600083815260200190815260200160002060009054906101000a900473ffffffffffffffffffffffffffffffffffffffff169050919050565b6000600660009054906101000a900473ffffffffffffffffffffffffffffffffffffffff16905081600660006101000a81548173ffffffffffffffffffffffffffffffffffffffff021916908373ffffffffffffffffffffffffffffffffffffffff1602179055508173ffffffffffffffffffffffffffffffffffffffff168173ffffffffffffffffffffffffffffffffffffffff167f8be0079c531659141344cd1fd0a4f28419497f9722a3daafe3b4186f6b6457e060405160405180910390a35050565b8173ffffffffffffffffffffffffffffffffffffffff168373ffffffffffffffffffffffffffffffffffffffff1603611a48576040517f08c379a0000000000000000000000000000000000000000000000000000000008152600401611a3f90613553565b60405180910390fd5b80600560008573ffffffffffffffffffffffffffffffffffffffff1673ffffffffffffffffffffffffffffffffffffffff16815260200190815260200160002060008473ffffffffffffffffffffffffffffffffffffffff1673ffffffffffffffffffffffffffffffffffffffff16815260200190815260200160002060006101000a81548160ff0219169083151502179055508173ffffffffffffffffffffffffffffffffffffffff168373ffffffffffffffffffffffffffffffffffffffff167f17307eab39ab6107e8899845ad3d59bd9653f200f220920489ca2b5937696c3183604051611b399190612392565b60405180910390a3505050565b611b51848484611490565b611b5d84848484611d2f565b611b9c576040517f08c379a0000000000000000000000000000000000000000000000000000000008152600401611b93906135e5565b60405180910390fd5b50505050565b606060405180602001604052806000815250905090565b606060006001611bc884611eb6565b01905060008167ffffffffffffffff811115611be757611be6612426565b5b6040519080825280601f01601f191660200182016040528015611c195781602001600182028036833780820191505090505b509050600082602001820190505b600115611c7c578080600190039150507f3031323334353637383961626364656600000000000000000000000000000000600a86061a8153600a8581611c7057611c6f613605565b5b04945060008503611c27575b819350505050919050565b611c918383612009565b611c9e6000848484611d2f565b611cdd576040517f08c379a0000000000000000000000000000000000000000000000000000000008152600401611cd4906135e5565b60405180910390fd5b505050565b60008073ffffffffffffffffffffffffffffffffffffffff16611d04836118d7565b73ffffffffffffffffffffffffffffffffffffffff1614159050919050565b50505050565b50505050565b6000611d508473ffffffffffffffffffffffffffffffffffffffff16612226565b15611ea9578373ffffffffffffffffffffffffffffffffffffffff1663150b7a02611d7961133a565b8786866040518563ffffffff1660e01b8152600401611d9b9493929190613689565b6020604051808303816000875af1925050508015611dd757506040513d601f19601f82011682018060405250810190611dd491906136ea565b60015b611e59573d8060008114611e07576040519150601f19603f3d011682016040523d82523d6000602084013e611e0c565b606091505b506000815103611e51576040517f08c379a0000000000000000000000000000000000000000000000000000000008152600401611e48906135e5565b60405180910390fd5b805181602001fd5b63150b7a0260e01b7bffffffffffffffffffffffffffffffffffffffffffffffffffffffff1916817bffffffffffffffffffffffffffffffffffffffffffffffffffffffff191614915050611eae565b600190505b949350505050565b600080600090507a184f03e93ff9f4daa797ed6e38ed64bf6a1f0100000000000000008310611f14577a184f03e93ff9f4daa797ed6e38ed64bf6a1f0100000000000000008381611f0a57611f09613605565b5b0492506040810190505b6d04ee2d6d415b85acef81000000008310611f51576d04ee2d6d415b85acef81000000008381611f4757611f46613605565b5b0492506020810190505b662386f26fc100008310611f8057662386f26fc100008381611f7657611f75613605565b5b0492506010810190505b6305f5e1008310611fa9576305f5e1008381611f9f57611f9e613605565b5b0492506008810190505b6127108310611fce576127108381611fc457611fc3613605565b5b0492506004810190505b60648310611ff15760648381611fe757611fe6613605565b5b0492506002810190505b600a8310612000576001810190505b80915050919050565b600073ffffffffffffffffffffffffffffffffffffffff168273ffffffffffffffffffffffffffffffffffffffff1603612078576040517f08c379a000000000000000000000000000000000000000000000000000000000815260040161206f90613763565b60405180910390fd5b61208181611ce2565b156120c1576040517f08c379a00000000000000000000000000000000000000000000000000000000081526004016120b8906137cf565b60405180910390fd5b6120cf600083836001611d23565b6120d881611ce2565b15612118576040517f08c379a000000000000000000000000000000000000000000000000000000000815260040161210f906137cf565b60405180910390fd5b6001600360008473ffffffffffffffffffffffffffffffffffffffff1673ffffffffffffffffffffffffffffffffffffffff16815260200190815260200160002060008282540192505081905550816002600083815260200190815260200160002060006101000a81548173ffffffffffffffffffffffffffffffffffffffff021916908373ffffffffffffffffffffffffffffffffffffffff160217905550808273ffffffffffffffffffffffffffffffffffffffff16600073ffffffffffffffffffffffffffffffffffffffff167fddf252ad1be2c89b69c2b068fc378daa952ba7f163c4a11628f55a4df523b3ef60405160405180910390a4612222600083836001611d29565b5050565b6000808273ffffffffffffffffffffffffffffffffffffffff163b119050919050565b50805461225590612c7c565b6000825580601f106122675750612286565b601f01602090049060005260206000209081019061228591906122c1565b5b50565b6040518060c0016040528060008152602001606081526020016060815260200160608152602001600081526020016000151581525090565b5b808211156122da5760008160009055506001016122c2565b5090565b6000604051905090565b600080fd5b600080fd5b60007fffffffff0000000000000000000000000000000000000000000000000000000082169050919050565b612327816122f2565b811461233257600080fd5b50565b6000813590506123448161231e565b92915050565b6000602082840312156123605761235f6122e8565b5b600061236e84828501612335565b91505092915050565b60008115159050919050565b61238c81612377565b82525050565b60006020820190506123a76000830184612383565b92915050565b600073ffffffffffffffffffffffffffffffffffffffff82169050919050565b60006123d8826123ad565b9050919050565b6123e8816123cd565b81146123f357600080fd5b50565b600081359050612405816123df565b92915050565b600080fd5b600080fd5b6000601f19601f8301169050919050565b7f4e487b7100000000000000000000000000000000000000000000000000000000600052604160045260246000fd5b61245e82612415565b810181811067ffffffffffffffff8211171561247d5761247c612426565b5b80604052505050565b60006124906122de565b905061249c8282612455565b919050565b600067ffffffffffffffff8211156124bc576124bb612426565b5b6124c582612415565b9050602081019050919050565b82818337600083830152505050565b60006124f46124ef846124a1565b612486565b9050828152602081018484840111156125105761250f612410565b5b61251b8482856124d2565b509392505050565b600082601f8301126125385761253761240b565b5b81356125488482602086016124e1565b91505092915050565b6000806000806080858703121561256b5761256a6122e8565b5b6000612579878288016123f6565b945050602085013567ffffffffffffffff81111561259a576125996122ed565b5b6125a687828801612523565b935050604085013567ffffffffffffffff8111156125c7576125c66122ed565b5b6125d387828801612523565b925050606085013567ffffffffffffffff8111156125f4576125f36122ed565b5b61260087828801612523565b91505092959194509250565b600081519050919050565b600082825260208201905092915050565b60005b8381101561264657808201518184015260208101905061262b565b60008484015250505050565b600061265d8261260c565b6126678185612617565b9350612677818560208601612628565b61268081612415565b840191505092915050565b600060208201905081810360008301526126a58184612652565b905092915050565b6000819050919050565b6126c0816126ad565b81146126cb57600080fd5b50565b6000813590506126dd816126b7565b92915050565b6000602082840312156126f9576126f86122e8565b5b6000612707848285016126ce565b91505092915050565b612719816123cd565b82525050565b60006020820190506127346000830184612710565b92915050565b60008060408385031215612751576127506122e8565b5b600061275f858286016123f6565b9250506020612770858286016126ce565b9150509250929050565b600080600060608486031215612793576127926122e8565b5b60006127a1868287016123f6565b93505060206127b2868287016123f6565b92505060406127c3868287016126ce565b9150509250925092565b6000602082840312156127e3576127e26122e8565b5b60006127f1848285016123f6565b91505092915050565b612803816126ad565b82525050565b600060208201905061281e60008301846127fa565b92915050565b600060c08201905061283960008301896127fa565b818103602083015261284b8188612652565b9050818103604083015261285f8187612652565b905081810360608301526128738186612652565b905061288260808301856127fa565b61288f60a0830184612383565b979650505050505050565b600081519050919050565b600082825260208201905092915050565b6000819050602082019050919050565b6128cf816126ad565b82525050565b600082825260208201905092915050565b60006128f18261260c565b6128fb81856128d5565b935061290b818560208601612628565b61291481612415565b840191505092915050565b61292881612377565b82525050565b600060c08301600083015161294660008601826128c6565b506020830151848203602086015261295e82826128e6565b9150506040830151848203604086015261297882826128e6565b9150506060830151848203606086015261299282826128e6565b91505060808301516129a760808601826128c6565b5060a08301516129ba60a086018261291f565b508091505092915050565b60006129d1838361292e565b905092915050565b6000602082019050919050565b60006129f18261289a565b6129fb81856128a5565b935083602082028501612a0d856128b6565b8060005b85811015612a495784840389528151612a2a85826129c5565b9450612a35836129d9565b925060208a01995050600181019050612a11565b50829750879550505050505092915050565b60006020820190508181036000830152612a7581846129e6565b905092915050565b612a8681612377565b8114612a9157600080fd5b50565b600081359050612aa381612a7d565b92915050565b60008060408385031215612ac057612abf6122e8565b5b6000612ace858286016123f6565b9250506020612adf85828601612a94565b9150509250929050565b600067ffffffffffffffff821115612b0457612b03612426565b5b612b0d82612415565b9050602081019050919050565b6000612b2d612b2884612ae9565b612486565b905082815260208101848484011115612b4957612b48612410565b5b612b548482856124d2565b509392505050565b600082601f830112612b7157612b7061240b565b5b8135612b81848260208601612b1a565b91505092915050565b60008060008060808587031215612ba457612ba36122e8565b5b6000612bb2878288016123f6565b9450506020612bc3878288016123f6565b9350506040612bd4878288016126ce565b925050606085013567ffffffffffffffff811115612bf557612bf46122ed565b5b612c0187828801612b5c565b91505092959194509250565b60008060408385031215612c2457612c236122e8565b5b6000612c32858286016123f6565b9250506020612c43858286016123f6565b9150509250929050565b7f4e487b7100000000000000000000000000000000000000000000000000000000600052602260045260246000fd5b60006002820490506001821680612c9457607f821691505b602082108103612ca757612ca6612c4d565b5b50919050565b60008190508160005260206000209050919050565b60006020601f8301049050919050565b600082821b905092915050565b600060088302612d0f7fffffffffffffffffffffffffffffffffffffffffffffffffffffffffffffffff82612cd2565b612d198683612cd2565b95508019841693508086168417925050509392505050565b6000819050919050565b6000612d56612d51612d4c846126ad565b612d31565b6126ad565b9050919050565b6000819050919050565b612d7083612d3b565b612d84612d7c82612d5d565b848454612cdf565b825550505050565b600090565b612d99612d8c565b612da4818484612d67565b505050565b5b81811015612dc857612dbd600082612d91565b600181019050612daa565b5050565b601f821115612e0d57612dde81612cad565b612de784612cc2565b81016020851015612df6578190505b612e0a612e0285612cc2565b830182612da9565b50505b505050565b600082821c905092915050565b6000612e3060001984600802612e12565b1980831691505092915050565b6000612e498383612e1f565b9150826002028217905092915050565b612e628261260c565b67ffffffffffffffff811115612e7b57612e7a612426565b5b612e858254612c7c565b612e90828285612dcc565b600060209050601f831160018114612ec35760008415612eb1578287015190505b612ebb8582612e3d565b865550612f23565b601f198416612ed186612cad565b60005b82811015612ef957848901518255600182019150602085019450602081019050612ed4565b86831015612f165784890151612f12601f891682612e1f565b8355505b6001600288020188555050505b505050505050565b7f4552433732313a20617070726f76616c20746f2063757272656e74206f776e6560008201527f7200000000000000000000000000000000000000000000000000000000000000602082015250565b6000612f87602183612617565b9150612f9282612f2b565b604082019050919050565b60006020820190508181036000830152612fb681612f7a565b9050919050565b7f4552433732313a20617070726f76652063616c6c6572206973206e6f7420746f60008201527f6b656e206f776e6572206f7220617070726f76656420666f7220616c6c000000602082015250565b6000613019603d83612617565b915061302482612fbd565b604082019050919050565b600060208201905081810360008301526130488161300c565b9050919050565b7f4552433732313a2063616c6c6572206973206e6f7420746f6b656e206f776e6560008201527f72206f7220617070726f76656400000000000000000000000000000000000000602082015250565b60006130ab602d83612617565b91506130b68261304f565b604082019050919050565b600060208201905081810360008301526130da8161309e565b9050919050565b7f4552433732313a20696e76616c696420746f6b656e2049440000000000000000600082015250565b6000613117601883612617565b9150613122826130e1565b602082019050919050565b600060208201905081810360008301526131468161310a565b9050919050565b7f4552433732313a2061646472657373207a65726f206973206e6f74206120766160008201527f6c6964206f776e65720000000000000000000000000000000000000000000000602082015250565b60006131a9602983612617565b91506131b48261314d565b604082019050919050565b600060208201905081810360008301526131d88161319c565b9050919050565b7f4e487b7100000000000000000000000000000000000000000000000000000000600052603260045260246000fd5b7f4e487b7100000000000000000000000000000000000000000000000000000000600052601160045260246000fd5b6000613248826126ad565b91507fffffffffffffffffffffffffffffffffffffffffffffffffffffffffffffffff820361327a5761327961320e565b5b600182019050919050565b600081905092915050565b600061329b8261260c565b6132a58185613285565b93506132b5818560208601612628565b80840191505092915050565b60006132cd8285613290565b91506132d98284613290565b91508190509392505050565b7f4f776e61626c653a206e6577206f776e657220697320746865207a65726f206160008201527f6464726573730000000000000000000000000000000000000000000000000000602082015250565b6000613341602683612617565b915061334c826132e5565b604082019050919050565b6000602082019050818103600083015261337081613334565b9050919050565b7f4f776e61626c653a2063616c6c6572206973206e6f7420746865206f776e6572600082015250565b60006133ad602083612617565b91506133b882613377565b602082019050919050565b600060208201905081810360008301526133dc816133a0565b9050919050565b7f4552433732313a207472616e736665722066726f6d20696e636f72726563742060008201527f6f776e6572000000000000000000000000000000000000000000000000000000602082015250565b600061343f602583612617565b915061344a826133e3565b604082019050919050565b6000602082019050818103600083015261346e81613432565b9050919050565b7f4552433732313a207472616e7366657220746f20746865207a65726f2061646460008201527f7265737300000000000000000000000000000000000000000000000000000000602082015250565b60006134d1602483612617565b91506134dc82613475565b604082019050919050565b60006020820190508181036000830152613500816134c4565b9050919050565b7f4552433732313a20617070726f766520746f2063616c6c657200000000000000600082015250565b600061353d601983612617565b915061354882613507565b602082019050919050565b6000602082019050818103600083015261356c81613530565b9050919050565b7f4552433732313a207472616e7366657220746f206e6f6e20455243373231526560008201527f63656976657220696d706c656d656e7465720000000000000000000000000000602082015250565b60006135cf603283612617565b91506135da82613573565b604082019050919050565b600060208201905081810360008301526135fe816135c2565b9050919050565b7f4e487b7100000000000000000000000000000000000000000000000000000000600052601260045260246000fd5b600081519050919050565b600082825260208201905092915050565b600061365b82613634565b613665818561363f565b9350613675818560208601612628565b61367e81612415565b840191505092915050565b600060808201905061369e6000830187612710565b6136ab6020830186612710565b6136b860408301856127fa565b81810360608301526136ca8184613650565b905095945050505050565b6000815190506136e48161231e565b92915050565b600060208284031215613700576136ff6122e8565b5b600061370e848285016136d5565b91505092915050565b7f4552433732313a206d696e7420746f20746865207a65726f2061646472657373600082015250565b600061374d602083612617565b915061375882613717565b602082019050919050565b6000602082019050818103600083015261377c81613740565b9050919050565b7f4552433732313a20746f6b656e20616c7265616479206d696e74656400000000600082015250565b60006137b9601c83612617565b91506137c482613783565b602082019050919050565b600060208201905081810360008301526137e8816137ac565b905091905056fea2646970667358221220e477c8d547495c12f069fe76b258b4c1fea0e49c4ab168767c3152884010223c64736f6c63430008110033",
  "linkReferences": {},
  "deployedLinkReferences": {}
}