{
  "_format": "hh-sol-artifact-1",
  "contractName": "Lifeblocs",
  "sourceName": "contracts/Lifeblocs.sol",
  "abi": [
    {
      "inputs": [],
      "stateMutability": "nonpayable",
      "type": "constructor"
    },
    {
      "anonymous": false,
      "inputs": [
        {
          "indexed": true,
          "internalType": "address",
          "name": "owner",
          "type": "address"
        },
        {
          "indexed": true,
          "internalType": "address",
          "name": "approved",
          "type": "address"
        },
        {
          "indexed": true,
          "internalType": "uint256",
          "name": "tokenId",
          "type": "uint256"
        }
      ],
      "name": "Approval",
      "type": "event"
    },
    {
      "anonymous": false,
      "inputs": [
        {
          "indexed": true,
          "internalType": "address",
          "name": "owner",
          "type": "address"
        },
        {
          "indexed": true,
          "internalType": "address",
          "name": "operator",
          "type": "address"
        },
        {
          "indexed": false,
          "internalType": "bool",
          "name": "approved",
          "type": "bool"
        }
      ],
      "name": "ApprovalForAll",
      "type": "event"
    },
    {
      "anonymous": false,
      "inputs": [
        {
          "indexed": true,
          "internalType": "address",
          "name": "previousOwner",
          "type": "address"
        },
        {
          "indexed": true,
          "internalType": "address",
          "name": "newOwner",
          "type": "address"
        }
      ],
      "name": "OwnershipTransferred",
      "type": "event"
    },
    {
      "anonymous": false,
      "inputs": [
        {
          "indexed": true,
          "internalType": "address",
          "name": "from",
          "type": "address"
        },
        {
          "indexed": true,
          "internalType": "address",
          "name": "to",
          "type": "address"
        },
        {
          "indexed": true,
          "internalType": "uint256",
          "name": "tokenId",
          "type": "uint256"
        }
      ],
      "name": "Transfer",
      "type": "event"
    },
    {
      "inputs": [
        {
          "internalType": "uint256",
          "name": "",
          "type": "uint256"
        }
      ],
      "name": "_lifeblocs",
      "outputs": [
        {
          "internalType": "uint256",
          "name": "tokenId",
          "type": "uint256"
        },
        {
          "internalType": "string",
          "name": "emoji",
          "type": "string"
        },
        {
          "internalType": "string",
          "name": "label",
          "type": "string"
        },
        {
          "internalType": "uint256",
          "name": "createdAt",
          "type": "uint256"
        }
      ],
      "stateMutability": "view",
      "type": "function"
    },
    {
      "inputs": [
        {
          "internalType": "address",
          "name": "to",
          "type": "address"
        },
        {
          "internalType": "uint256",
          "name": "tokenId",
          "type": "uint256"
        }
      ],
      "name": "approve",
      "outputs": [],
      "stateMutability": "nonpayable",
      "type": "function"
    },
    {
      "inputs": [
        {
          "internalType": "address",
          "name": "owner",
          "type": "address"
        }
      ],
      "name": "balanceOf",
      "outputs": [
        {
          "internalType": "uint256",
          "name": "",
          "type": "uint256"
        }
      ],
      "stateMutability": "view",
      "type": "function"
    },
    {
      "inputs": [
        {
          "internalType": "uint256",
          "name": "tokenId",
          "type": "uint256"
        }
      ],
      "name": "burn",
      "outputs": [],
      "stateMutability": "nonpayable",
      "type": "function"
    },
    {
      "inputs": [
        {
          "internalType": "uint256",
          "name": "tokenId",
          "type": "uint256"
        }
      ],
      "name": "getApproved",
      "outputs": [
        {
          "internalType": "address",
          "name": "",
          "type": "address"
        }
      ],
      "stateMutability": "view",
      "type": "function"
    },
    {
      "inputs": [
        {
          "internalType": "address",
          "name": "owner",
          "type": "address"
        }
      ],
      "name": "getLifeFrom",
      "outputs": [
        {
          "components": [
            {
              "internalType": "uint256",
              "name": "tokenId",
              "type": "uint256"
            },
            {
              "internalType": "string",
              "name": "emoji",
              "type": "string"
            },
            {
              "internalType": "string",
              "name": "label",
              "type": "string"
            },
            {
              "internalType": "uint256",
              "name": "createdAt",
              "type": "uint256"
            }
          ],
          "internalType": "struct Lifeblocs.Lifebloc[]",
          "name": "",
          "type": "tuple[]"
        }
      ],
      "stateMutability": "view",
      "type": "function"
    },
    {
      "inputs": [
        {
          "internalType": "address",
          "name": "owner",
          "type": "address"
        },
        {
          "internalType": "address",
          "name": "operator",
          "type": "address"
        }
      ],
      "name": "isApprovedForAll",
      "outputs": [
        {
          "internalType": "bool",
          "name": "",
          "type": "bool"
        }
      ],
      "stateMutability": "view",
      "type": "function"
    },
    {
      "inputs": [],
      "name": "name",
      "outputs": [
        {
          "internalType": "string",
          "name": "",
          "type": "string"
        }
      ],
      "stateMutability": "view",
      "type": "function"
    },
    {
      "inputs": [],
      "name": "owner",
      "outputs": [
        {
          "internalType": "address",
          "name": "",
          "type": "address"
        }
      ],
      "stateMutability": "view",
      "type": "function"
    },
    {
      "inputs": [
        {
          "internalType": "uint256",
          "name": "tokenId",
          "type": "uint256"
        }
      ],
      "name": "ownerOf",
      "outputs": [
        {
          "internalType": "address",
          "name": "",
          "type": "address"
        }
      ],
      "stateMutability": "view",
      "type": "function"
    },
    {
      "inputs": [],
      "name": "renounceOwnership",
      "outputs": [],
      "stateMutability": "nonpayable",
      "type": "function"
    },
    {
      "inputs": [
        {
          "internalType": "address",
          "name": "to",
          "type": "address"
        },
        {
          "internalType": "string",
          "name": "emoji",
          "type": "string"
        },
        {
          "internalType": "string",
          "name": "label",
          "type": "string"
        }
      ],
      "name": "safeMint",
      "outputs": [],
      "stateMutability": "nonpayable",
      "type": "function"
    },
    {
      "inputs": [
        {
          "internalType": "address",
          "name": "from",
          "type": "address"
        },
        {
          "internalType": "address",
          "name": "to",
          "type": "address"
        },
        {
          "internalType": "uint256",
          "name": "tokenId",
          "type": "uint256"
        }
      ],
      "name": "safeTransferFrom",
      "outputs": [],
      "stateMutability": "nonpayable",
      "type": "function"
    },
    {
      "inputs": [
        {
          "internalType": "address",
          "name": "from",
          "type": "address"
        },
        {
          "internalType": "address",
          "name": "to",
          "type": "address"
        },
        {
          "internalType": "uint256",
          "name": "tokenId",
          "type": "uint256"
        },
        {
          "internalType": "bytes",
          "name": "data",
          "type": "bytes"
        }
      ],
      "name": "safeTransferFrom",
      "outputs": [],
      "stateMutability": "nonpayable",
      "type": "function"
    },
    {
      "inputs": [
        {
          "internalType": "address",
          "name": "operator",
          "type": "address"
        },
        {
          "internalType": "bool",
          "name": "approved",
          "type": "bool"
        }
      ],
      "name": "setApprovalForAll",
      "outputs": [],
      "stateMutability": "nonpayable",
      "type": "function"
    },
    {
      "inputs": [
        {
          "internalType": "bytes4",
          "name": "interfaceId",
          "type": "bytes4"
        }
      ],
      "name": "supportsInterface",
      "outputs": [
        {
          "internalType": "bool",
          "name": "",
          "type": "bool"
        }
      ],
      "stateMutability": "view",
      "type": "function"
    },
    {
      "inputs": [],
      "name": "symbol",
      "outputs": [
        {
          "internalType": "string",
          "name": "",
          "type": "string"
        }
      ],
      "stateMutability": "view",
      "type": "function"
    },
    {
      "inputs": [
        {
          "internalType": "uint256",
          "name": "tokenId",
          "type": "uint256"
        }
      ],
      "name": "tokenURI",
      "outputs": [
        {
          "internalType": "string",
          "name": "",
          "type": "string"
        }
      ],
      "stateMutability": "view",
      "type": "function"
    },
    {
      "inputs": [
        {
          "internalType": "address",
          "name": "from",
          "type": "address"
        },
        {
          "internalType": "address",
          "name": "to",
          "type": "address"
        },
        {
          "internalType": "uint256",
          "name": "tokenId",
          "type": "uint256"
        }
      ],
      "name": "transferFrom",
      "outputs": [],
      "stateMutability": "nonpayable",
      "type": "function"
    },
    {
      "inputs": [
        {
          "internalType": "address",
          "name": "newOwner",
          "type": "address"
        }
      ],
      "name": "transferOwnership",
      "outputs": [],
      "stateMutability": "nonpayable",
      "type": "function"
    }
  ],
  "bytecode": "0x60806040523480156200001157600080fd5b506040518060400160405280600981526020017f4c696665626c6f637300000000000000000000000000000000000000000000008152506040518060400160405280600481526020017f4c4946450000000000000000000000000000000000000000000000000000000081525081600090816200008f919062000412565b508060019081620000a1919062000412565b505050620000c4620000b8620000ca60201b60201c565b620000d260201b60201c565b620004f9565b600033905090565b6000600660009054906101000a900473ffffffffffffffffffffffffffffffffffffffff16905081600660006101000a81548173ffffffffffffffffffffffffffffffffffffffff021916908373ffffffffffffffffffffffffffffffffffffffff1602179055508173ffffffffffffffffffffffffffffffffffffffff168173ffffffffffffffffffffffffffffffffffffffff167f8be0079c531659141344cd1fd0a4f28419497f9722a3daafe3b4186f6b6457e060405160405180910390a35050565b600081519050919050565b7f4e487b7100000000000000000000000000000000000000000000000000000000600052604160045260246000fd5b7f4e487b7100000000000000000000000000000000000000000000000000000000600052602260045260246000fd5b600060028204905060018216806200021a57607f821691505b60208210810362000230576200022f620001d2565b5b50919050565b60008190508160005260206000209050919050565b60006020601f8301049050919050565b600082821b905092915050565b6000600883026200029a7fffffffffffffffffffffffffffffffffffffffffffffffffffffffffffffffff826200025b565b620002a686836200025b565b95508019841693508086168417925050509392505050565b6000819050919050565b6000819050919050565b6000620002f3620002ed620002e784620002be565b620002c8565b620002be565b9050919050565b6000819050919050565b6200030f83620002d2565b620003276200031e82620002fa565b84845462000268565b825550505050565b600090565b6200033e6200032f565b6200034b81848462000304565b505050565b5b8181101562000373576200036760008262000334565b60018101905062000351565b5050565b601f821115620003c2576200038c8162000236565b62000397846200024b565b81016020851015620003a7578190505b620003bf620003b6856200024b565b83018262000350565b50505b505050565b600082821c905092915050565b6000620003e760001984600802620003c7565b1980831691505092915050565b6000620004028383620003d4565b9150826002028217905092915050565b6200041d8262000198565b67ffffffffffffffff811115620004395762000438620001a3565b5b62000445825462000201565b6200045282828562000377565b600060209050601f8311600181146200048a576000841562000475578287015190505b620004818582620003f4565b865550620004f1565b601f1984166200049a8662000236565b60005b82811015620004c4578489015182556001820191506020850194506020810190506200049d565b86831015620004e45784890151620004e0601f891682620003d4565b8355505b6001600288020188555050505b505050505050565b61352e80620005096000396000f3fe608060405234801561001057600080fd5b506004361061012c5760003560e01c806370a08231116100ad578063b88d4fde11610071578063b88d4fde14610344578063c87b56dd14610360578063e985e9c514610390578063eca81d42146103c0578063f2fde38b146103dc5761012c565b806370a08231146102b2578063715018a6146102e25780638da5cb5b146102ec57806395d89b411461030a578063a22cb465146103285761012c565b8063253dc4ab116100f4578063253dc4ab146101e757806342842e0e1461021757806342966c68146102335780636352211e1461024f57806365ea29f71461027f5761012c565b806301ffc9a71461013157806306fdde0314610161578063081812fc1461017f578063095ea7b3146101af57806323b872dd146101cb575b600080fd5b61014b600480360381019061014691906120e2565b6103f8565b604051610158919061212a565b60405180910390f35b6101696104da565b60405161017691906121d5565b60405180910390f35b6101996004803603810190610194919061222d565b61056c565b6040516101a6919061229b565b60405180910390f35b6101c960048036038101906101c491906122e2565b6105b2565b005b6101e560048036038101906101e09190612322565b6106c9565b005b61020160048036038101906101fc9190612375565b610729565b60405161020e9190612527565b60405180910390f35b610231600480360381019061022c9190612322565b61096b565b005b61024d6004803603810190610248919061222d565b61098b565b005b6102696004803603810190610264919061222d565b6109e7565b604051610276919061229b565b60405180910390f35b6102996004803603810190610294919061222d565b610a6d565b6040516102a99493929190612558565b60405180910390f35b6102cc60048036038101906102c79190612375565b610bad565b6040516102d991906125ab565b60405180910390f35b6102ea610c64565b005b6102f4610c78565b604051610301919061229b565b60405180910390f35b610312610ca2565b60405161031f91906121d5565b60405180910390f35b610342600480360381019061033d91906125f2565b610d34565b005b61035e60048036038101906103599190612767565b610d4a565b005b61037a6004803603810190610375919061222d565b610dac565b60405161038791906121d5565b60405180910390f35b6103aa60048036038101906103a591906127ea565b610e14565b6040516103b7919061212a565b60405180910390f35b6103da60048036038101906103d591906128cb565b610ea8565b005b6103f660048036038101906103f19190612375565b610f47565b005b60007f80ac58cd000000000000000000000000000000000000000000000000000000007bffffffffffffffffffffffffffffffffffffffffffffffffffffffff1916827bffffffffffffffffffffffffffffffffffffffffffffffffffffffff191614806104c357507f5b5e139f000000000000000000000000000000000000000000000000000000007bffffffffffffffffffffffffffffffffffffffffffffffffffffffff1916827bffffffffffffffffffffffffffffffffffffffffffffffffffffffff1916145b806104d357506104d282610fca565b5b9050919050565b6060600080546104e990612985565b80601f016020809104026020016040519081016040528092919081815260200182805461051590612985565b80156105625780601f1061053757610100808354040283529160200191610562565b820191906000526020600020905b81548152906001019060200180831161054557829003601f168201915b5050505050905090565b600061057782611034565b6004600083815260200190815260200160002060009054906101000a900473ffffffffffffffffffffffffffffffffffffffff169050919050565b60006105bd826109e7565b90508073ffffffffffffffffffffffffffffffffffffffff168373ffffffffffffffffffffffffffffffffffffffff160361062d576040517f08c379a000000000000000000000000000000000000000000000000000000000815260040161062490612a28565b60405180910390fd5b8073ffffffffffffffffffffffffffffffffffffffff1661064c61107f565b73ffffffffffffffffffffffffffffffffffffffff16148061067b575061067a8161067561107f565b610e14565b5b6106ba576040517f08c379a00000000000000000000000000000000000000000000000000000000081526004016106b190612aba565b60405180910390fd5b6106c48383611087565b505050565b6106da6106d461107f565b82611140565b610719576040517f08c379a000000000000000000000000000000000000000000000000000000000815260040161071090612b4c565b60405180910390fd5b6107248383836111d5565b505050565b6060600060086000015467ffffffffffffffff81111561074c5761074b61263c565b5b60405190808252806020026020018201604052801561078557816020015b61077261204e565b81526020019060019003908161076a5790505b50905060005b600860000154811015610961576107a1816114ce565b73ffffffffffffffffffffffffffffffffffffffff168473ffffffffffffffffffffffffffffffffffffffff160361094e576000600760008381526020019081526020016000209050806040518060800160405290816000820154815260200160018201805461081090612985565b80601f016020809104026020016040519081016040528092919081815260200182805461083c90612985565b80156108895780601f1061085e57610100808354040283529160200191610889565b820191906000526020600020905b81548152906001019060200180831161086c57829003601f168201915b505050505081526020016002820180546108a290612985565b80601f01602080910402602001604051908101604052809291908181526020018280546108ce90612985565b801561091b5780601f106108f05761010080835404028352916020019161091b565b820191906000526020600020905b8154815290600101906020018083116108fe57829003601f168201915b5050505050815260200160038201548152505083838151811061094157610940612b6c565b5b6020026020010181905250505b808061095990612bca565b91505061078b565b5080915050919050565b61098683838360405180602001604052806000815250610d4a565b505050565b61099c61099661107f565b82611140565b6109db576040517f08c379a00000000000000000000000000000000000000000000000000000000081526004016109d290612b4c565b60405180910390fd5b6109e48161150b565b50565b6000806109f3836114ce565b9050600073ffffffffffffffffffffffffffffffffffffffff168173ffffffffffffffffffffffffffffffffffffffff1603610a64576040517f08c379a0000000000000000000000000000000000000000000000000000000008152600401610a5b90612c5e565b60405180910390fd5b80915050919050565b6007602052806000526040600020600091509050806000015490806001018054610a9690612985565b80601f0160208091040260200160405190810160405280929190818152602001828054610ac290612985565b8015610b0f5780601f10610ae457610100808354040283529160200191610b0f565b820191906000526020600020905b815481529060010190602001808311610af257829003601f168201915b505050505090806002018054610b2490612985565b80601f0160208091040260200160405190810160405280929190818152602001828054610b5090612985565b8015610b9d5780601f10610b7257610100808354040283529160200191610b9d565b820191906000526020600020905b815481529060010190602001808311610b8057829003601f168201915b5050505050908060030154905084565b60008073ffffffffffffffffffffffffffffffffffffffff168273ffffffffffffffffffffffffffffffffffffffff1603610c1d576040517f08c379a0000000000000000000000000000000000000000000000000000000008152600401610c1490612cf0565b60405180910390fd5b600360008373ffffffffffffffffffffffffffffffffffffffff1673ffffffffffffffffffffffffffffffffffffffff168152602001908152602001600020549050919050565b610c6c611659565b610c7660006116d7565b565b6000600660009054906101000a900473ffffffffffffffffffffffffffffffffffffffff16905090565b606060018054610cb190612985565b80601f0160208091040260200160405190810160405280929190818152602001828054610cdd90612985565b8015610d2a5780601f10610cff57610100808354040283529160200191610d2a565b820191906000526020600020905b815481529060010190602001808311610d0d57829003601f168201915b5050505050905090565b610d46610d3f61107f565b838361179d565b5050565b610d5b610d5561107f565b83611140565b610d9a576040517f08c379a0000000000000000000000000000000000000000000000000000000008152600401610d9190612b4c565b60405180910390fd5b610da684848484611909565b50505050565b6060610db782611034565b6000610dc1611965565b90506000815111610de15760405180602001604052806000815250610e0c565b80610deb8461197c565b604051602001610dfc929190612d4c565b6040516020818303038152906040525b915050919050565b6000600560008473ffffffffffffffffffffffffffffffffffffffff1673ffffffffffffffffffffffffffffffffffffffff16815260200190815260200160002060008373ffffffffffffffffffffffffffffffffffffffff1673ffffffffffffffffffffffffffffffffffffffff16815260200190815260200160002060009054906101000a900460ff16905092915050565b6000610eb46008611a4a565b9050610ec06008611a58565b610eca8482611a6e565b60405180608001604052808281526020018481526020018381526020014281525060076000838152602001908152602001600020600082015181600001556020820151816001019081610f1d9190612f1c565b506040820151816002019081610f339190612f1c565b506060820151816003015590505050505050565b610f4f611659565b600073ffffffffffffffffffffffffffffffffffffffff168173ffffffffffffffffffffffffffffffffffffffff1603610fbe576040517f08c379a0000000000000000000000000000000000000000000000000000000008152600401610fb590613060565b60405180910390fd5b610fc7816116d7565b50565b60007f01ffc9a7000000000000000000000000000000000000000000000000000000007bffffffffffffffffffffffffffffffffffffffffffffffffffffffff1916827bffffffffffffffffffffffffffffffffffffffffffffffffffffffff1916149050919050565b61103d81611a8c565b61107c576040517f08c379a000000000000000000000000000000000000000000000000000000000815260040161107390612c5e565b60405180910390fd5b50565b600033905090565b816004600083815260200190815260200160002060006101000a81548173ffffffffffffffffffffffffffffffffffffffff021916908373ffffffffffffffffffffffffffffffffffffffff160217905550808273ffffffffffffffffffffffffffffffffffffffff166110fa836109e7565b73ffffffffffffffffffffffffffffffffffffffff167f8c5be1e5ebec7d5bd14f71427d1e84f3dd0314c0f7b2291e5b200ac8c7c3b92560405160405180910390a45050565b60008061114c836109e7565b90508073ffffffffffffffffffffffffffffffffffffffff168473ffffffffffffffffffffffffffffffffffffffff16148061118e575061118d8185610e14565b5b806111cc57508373ffffffffffffffffffffffffffffffffffffffff166111b48461056c565b73ffffffffffffffffffffffffffffffffffffffff16145b91505092915050565b8273ffffffffffffffffffffffffffffffffffffffff166111f5826109e7565b73ffffffffffffffffffffffffffffffffffffffff161461124b576040517f08c379a0000000000000000000000000000000000000000000000000000000008152600401611242906130f2565b60405180910390fd5b600073ffffffffffffffffffffffffffffffffffffffff168273ffffffffffffffffffffffffffffffffffffffff16036112ba576040517f08c379a00000000000000000000000000000000000000000000000000000000081526004016112b190613184565b60405180910390fd5b6112c78383836001611acd565b8273ffffffffffffffffffffffffffffffffffffffff166112e7826109e7565b73ffffffffffffffffffffffffffffffffffffffff161461133d576040517f08c379a0000000000000000000000000000000000000000000000000000000008152600401611334906130f2565b60405180910390fd5b6004600082815260200190815260200160002060006101000a81549073ffffffffffffffffffffffffffffffffffffffff02191690556001600360008573ffffffffffffffffffffffffffffffffffffffff1673ffffffffffffffffffffffffffffffffffffffff168152602001908152602001600020600082825403925050819055506001600360008473ffffffffffffffffffffffffffffffffffffffff1673ffffffffffffffffffffffffffffffffffffffff16815260200190815260200160002060008282540192505081905550816002600083815260200190815260200160002060006101000a81548173ffffffffffffffffffffffffffffffffffffffff021916908373ffffffffffffffffffffffffffffffffffffffff160217905550808273ffffffffffffffffffffffffffffffffffffffff168473ffffffffffffffffffffffffffffffffffffffff167fddf252ad1be2c89b69c2b068fc378daa952ba7f163c4a11628f55a4df523b3ef60405160405180910390a46114c98383836001611ad3565b505050565b60006002600083815260200190815260200160002060009054906101000a900473ffffffffffffffffffffffffffffffffffffffff169050919050565b6000611516826109e7565b9050611526816000846001611acd565b61152f826109e7565b90506004600083815260200190815260200160002060006101000a81549073ffffffffffffffffffffffffffffffffffffffff02191690556001600360008373ffffffffffffffffffffffffffffffffffffffff1673ffffffffffffffffffffffffffffffffffffffff168152602001908152602001600020600082825403925050819055506002600083815260200190815260200160002060006101000a81549073ffffffffffffffffffffffffffffffffffffffff021916905581600073ffffffffffffffffffffffffffffffffffffffff168273ffffffffffffffffffffffffffffffffffffffff167fddf252ad1be2c89b69c2b068fc378daa952ba7f163c4a11628f55a4df523b3ef60405160405180910390a4611655816000846001611ad3565b5050565b61166161107f565b73ffffffffffffffffffffffffffffffffffffffff1661167f610c78565b73ffffffffffffffffffffffffffffffffffffffff16146116d5576040517f08c379a00000000000000000000000000000000000000000000000000000000081526004016116cc906131f0565b60405180910390fd5b565b6000600660009054906101000a900473ffffffffffffffffffffffffffffffffffffffff16905081600660006101000a81548173ffffffffffffffffffffffffffffffffffffffff021916908373ffffffffffffffffffffffffffffffffffffffff1602179055508173ffffffffffffffffffffffffffffffffffffffff168173ffffffffffffffffffffffffffffffffffffffff167f8be0079c531659141344cd1fd0a4f28419497f9722a3daafe3b4186f6b6457e060405160405180910390a35050565b8173ffffffffffffffffffffffffffffffffffffffff168373ffffffffffffffffffffffffffffffffffffffff160361180b576040517f08c379a00000000000000000000000000000000000000000000000000000000081526004016118029061325c565b60405180910390fd5b80600560008573ffffffffffffffffffffffffffffffffffffffff1673ffffffffffffffffffffffffffffffffffffffff16815260200190815260200160002060008473ffffffffffffffffffffffffffffffffffffffff1673ffffffffffffffffffffffffffffffffffffffff16815260200190815260200160002060006101000a81548160ff0219169083151502179055508173ffffffffffffffffffffffffffffffffffffffff168373ffffffffffffffffffffffffffffffffffffffff167f17307eab39ab6107e8899845ad3d59bd9653f200f220920489ca2b5937696c31836040516118fc919061212a565b60405180910390a3505050565b6119148484846111d5565b61192084848484611ad9565b61195f576040517f08c379a0000000000000000000000000000000000000000000000000000000008152600401611956906132ee565b60405180910390fd5b50505050565b606060405180602001604052806000815250905090565b60606000600161198b84611c60565b01905060008167ffffffffffffffff8111156119aa576119a961263c565b5b6040519080825280601f01601f1916602001820160405280156119dc5781602001600182028036833780820191505090505b509050600082602001820190505b600115611a3f578080600190039150507f3031323334353637383961626364656600000000000000000000000000000000600a86061a8153600a8581611a3357611a3261330e565b5b049450600085036119ea575b819350505050919050565b600081600001549050919050565b6001816000016000828254019250508190555050565b611a88828260405180602001604052806000815250611db3565b5050565b60008073ffffffffffffffffffffffffffffffffffffffff16611aae836114ce565b73ffffffffffffffffffffffffffffffffffffffff1614159050919050565b50505050565b50505050565b6000611afa8473ffffffffffffffffffffffffffffffffffffffff16611e0e565b15611c53578373ffffffffffffffffffffffffffffffffffffffff1663150b7a02611b2361107f565b8786866040518563ffffffff1660e01b8152600401611b459493929190613392565b6020604051808303816000875af1925050508015611b8157506040513d601f19601f82011682018060405250810190611b7e91906133f3565b60015b611c03573d8060008114611bb1576040519150601f19603f3d011682016040523d82523d6000602084013e611bb6565b606091505b506000815103611bfb576040517f08c379a0000000000000000000000000000000000000000000000000000000008152600401611bf2906132ee565b60405180910390fd5b805181602001fd5b63150b7a0260e01b7bffffffffffffffffffffffffffffffffffffffffffffffffffffffff1916817bffffffffffffffffffffffffffffffffffffffffffffffffffffffff191614915050611c58565b600190505b949350505050565b600080600090507a184f03e93ff9f4daa797ed6e38ed64bf6a1f0100000000000000008310611cbe577a184f03e93ff9f4daa797ed6e38ed64bf6a1f0100000000000000008381611cb457611cb361330e565b5b0492506040810190505b6d04ee2d6d415b85acef81000000008310611cfb576d04ee2d6d415b85acef81000000008381611cf157611cf061330e565b5b0492506020810190505b662386f26fc100008310611d2a57662386f26fc100008381611d2057611d1f61330e565b5b0492506010810190505b6305f5e1008310611d53576305f5e1008381611d4957611d4861330e565b5b0492506008810190505b6127108310611d78576127108381611d6e57611d6d61330e565b5b0492506004810190505b60648310611d9b5760648381611d9157611d9061330e565b5b0492506002810190505b600a8310611daa576001810190505b80915050919050565b611dbd8383611e31565b611dca6000848484611ad9565b611e09576040517f08c379a0000000000000000000000000000000000000000000000000000000008152600401611e00906132ee565b60405180910390fd5b505050565b6000808273ffffffffffffffffffffffffffffffffffffffff163b119050919050565b600073ffffffffffffffffffffffffffffffffffffffff168273ffffffffffffffffffffffffffffffffffffffff1603611ea0576040517f08c379a0000000000000000000000000000000000000000000000000000000008152600401611e979061346c565b60405180910390fd5b611ea981611a8c565b15611ee9576040517f08c379a0000000000000000000000000000000000000000000000000000000008152600401611ee0906134d8565b60405180910390fd5b611ef7600083836001611acd565b611f0081611a8c565b15611f40576040517f08c379a0000000000000000000000000000000000000000000000000000000008152600401611f37906134d8565b60405180910390fd5b6001600360008473ffffffffffffffffffffffffffffffffffffffff1673ffffffffffffffffffffffffffffffffffffffff16815260200190815260200160002060008282540192505081905550816002600083815260200190815260200160002060006101000a81548173ffffffffffffffffffffffffffffffffffffffff021916908373ffffffffffffffffffffffffffffffffffffffff160217905550808273ffffffffffffffffffffffffffffffffffffffff16600073ffffffffffffffffffffffffffffffffffffffff167fddf252ad1be2c89b69c2b068fc378daa952ba7f163c4a11628f55a4df523b3ef60405160405180910390a461204a600083836001611ad3565b5050565b6040518060800160405280600081526020016060815260200160608152602001600081525090565b6000604051905090565b600080fd5b600080fd5b60007fffffffff0000000000000000000000000000000000000000000000000000000082169050919050565b6120bf8161208a565b81146120ca57600080fd5b50565b6000813590506120dc816120b6565b92915050565b6000602082840312156120f8576120f7612080565b5b6000612106848285016120cd565b91505092915050565b60008115159050919050565b6121248161210f565b82525050565b600060208201905061213f600083018461211b565b92915050565b600081519050919050565b600082825260208201905092915050565b60005b8381101561217f578082015181840152602081019050612164565b60008484015250505050565b6000601f19601f8301169050919050565b60006121a782612145565b6121b18185612150565b93506121c1818560208601612161565b6121ca8161218b565b840191505092915050565b600060208201905081810360008301526121ef818461219c565b905092915050565b6000819050919050565b61220a816121f7565b811461221557600080fd5b50565b60008135905061222781612201565b92915050565b60006020828403121561224357612242612080565b5b600061225184828501612218565b91505092915050565b600073ffffffffffffffffffffffffffffffffffffffff82169050919050565b60006122858261225a565b9050919050565b6122958161227a565b82525050565b60006020820190506122b0600083018461228c565b92915050565b6122bf8161227a565b81146122ca57600080fd5b50565b6000813590506122dc816122b6565b92915050565b600080604083850312156122f9576122f8612080565b5b6000612307858286016122cd565b925050602061231885828601612218565b9150509250929050565b60008060006060848603121561233b5761233a612080565b5b6000612349868287016122cd565b935050602061235a868287016122cd565b925050604061236b86828701612218565b9150509250925092565b60006020828403121561238b5761238a612080565b5b6000612399848285016122cd565b91505092915050565b600081519050919050565b600082825260208201905092915050565b6000819050602082019050919050565b6123d7816121f7565b82525050565b600082825260208201905092915050565b60006123f982612145565b61240381856123dd565b9350612413818560208601612161565b61241c8161218b565b840191505092915050565b600060808301600083015161243f60008601826123ce565b506020830151848203602086015261245782826123ee565b9150506040830151848203604086015261247182826123ee565b915050606083015161248660608601826123ce565b508091505092915050565b600061249d8383612427565b905092915050565b6000602082019050919050565b60006124bd826123a2565b6124c781856123ad565b9350836020820285016124d9856123be565b8060005b8581101561251557848403895281516124f68582612491565b9450612501836124a5565b925060208a019950506001810190506124dd565b50829750879550505050505092915050565b6000602082019050818103600083015261254181846124b2565b905092915050565b612552816121f7565b82525050565b600060808201905061256d6000830187612549565b818103602083015261257f818661219c565b90508181036040830152612593818561219c565b90506125a26060830184612549565b95945050505050565b60006020820190506125c06000830184612549565b92915050565b6125cf8161210f565b81146125da57600080fd5b50565b6000813590506125ec816125c6565b92915050565b6000806040838503121561260957612608612080565b5b6000612617858286016122cd565b9250506020612628858286016125dd565b9150509250929050565b600080fd5b600080fd5b7f4e487b7100000000000000000000000000000000000000000000000000000000600052604160045260246000fd5b6126748261218b565b810181811067ffffffffffffffff821117156126935761269261263c565b5b80604052505050565b60006126a6612076565b90506126b2828261266b565b919050565b600067ffffffffffffffff8211156126d2576126d161263c565b5b6126db8261218b565b9050602081019050919050565b82818337600083830152505050565b600061270a612705846126b7565b61269c565b90508281526020810184848401111561272657612725612637565b5b6127318482856126e8565b509392505050565b600082601f83011261274e5761274d612632565b5b813561275e8482602086016126f7565b91505092915050565b6000806000806080858703121561278157612780612080565b5b600061278f878288016122cd565b94505060206127a0878288016122cd565b93505060406127b187828801612218565b925050606085013567ffffffffffffffff8111156127d2576127d1612085565b5b6127de87828801612739565b91505092959194509250565b6000806040838503121561280157612800612080565b5b600061280f858286016122cd565b9250506020612820858286016122cd565b9150509250929050565b600067ffffffffffffffff8211156128455761284461263c565b5b61284e8261218b565b9050602081019050919050565b600061286e6128698461282a565b61269c565b90508281526020810184848401111561288a57612889612637565b5b6128958482856126e8565b509392505050565b600082601f8301126128b2576128b1612632565b5b81356128c284826020860161285b565b91505092915050565b6000806000606084860312156128e4576128e3612080565b5b60006128f2868287016122cd565b935050602084013567ffffffffffffffff81111561291357612912612085565b5b61291f8682870161289d565b925050604084013567ffffffffffffffff8111156129405761293f612085565b5b61294c8682870161289d565b9150509250925092565b7f4e487b7100000000000000000000000000000000000000000000000000000000600052602260045260246000fd5b6000600282049050600182168061299d57607f821691505b6020821081036129b0576129af612956565b5b50919050565b7f4552433732313a20617070726f76616c20746f2063757272656e74206f776e6560008201527f7200000000000000000000000000000000000000000000000000000000000000602082015250565b6000612a12602183612150565b9150612a1d826129b6565b604082019050919050565b60006020820190508181036000830152612a4181612a05565b9050919050565b7f4552433732313a20617070726f76652063616c6c6572206973206e6f7420746f60008201527f6b656e206f776e6572206f7220617070726f76656420666f7220616c6c000000602082015250565b6000612aa4603d83612150565b9150612aaf82612a48565b604082019050919050565b60006020820190508181036000830152612ad381612a97565b9050919050565b7f4552433732313a2063616c6c6572206973206e6f7420746f6b656e206f776e6560008201527f72206f7220617070726f76656400000000000000000000000000000000000000602082015250565b6000612b36602d83612150565b9150612b4182612ada565b604082019050919050565b60006020820190508181036000830152612b6581612b29565b9050919050565b7f4e487b7100000000000000000000000000000000000000000000000000000000600052603260045260246000fd5b7f4e487b7100000000000000000000000000000000000000000000000000000000600052601160045260246000fd5b6000612bd5826121f7565b91507fffffffffffffffffffffffffffffffffffffffffffffffffffffffffffffffff8203612c0757612c06612b9b565b5b600182019050919050565b7f4552433732313a20696e76616c696420746f6b656e2049440000000000000000600082015250565b6000612c48601883612150565b9150612c5382612c12565b602082019050919050565b60006020820190508181036000830152612c7781612c3b565b9050919050565b7f4552433732313a2061646472657373207a65726f206973206e6f74206120766160008201527f6c6964206f776e65720000000000000000000000000000000000000000000000602082015250565b6000612cda602983612150565b9150612ce582612c7e565b604082019050919050565b60006020820190508181036000830152612d0981612ccd565b9050919050565b600081905092915050565b6000612d2682612145565b612d308185612d10565b9350612d40818560208601612161565b80840191505092915050565b6000612d588285612d1b565b9150612d648284612d1b565b91508190509392505050565b60008190508160005260206000209050919050565b60006020601f8301049050919050565b600082821b905092915050565b600060088302612dd27fffffffffffffffffffffffffffffffffffffffffffffffffffffffffffffffff82612d95565b612ddc8683612d95565b95508019841693508086168417925050509392505050565b6000819050919050565b6000612e19612e14612e0f846121f7565b612df4565b6121f7565b9050919050565b6000819050919050565b612e3383612dfe565b612e47612e3f82612e20565b848454612da2565b825550505050565b600090565b612e5c612e4f565b612e67818484612e2a565b505050565b5b81811015612e8b57612e80600082612e54565b600181019050612e6d565b5050565b601f821115612ed057612ea181612d70565b612eaa84612d85565b81016020851015612eb9578190505b612ecd612ec585612d85565b830182612e6c565b50505b505050565b600082821c905092915050565b6000612ef360001984600802612ed5565b1980831691505092915050565b6000612f0c8383612ee2565b9150826002028217905092915050565b612f2582612145565b67ffffffffffffffff811115612f3e57612f3d61263c565b5b612f488254612985565b612f53828285612e8f565b600060209050601f831160018114612f865760008415612f74578287015190505b612f7e8582612f00565b865550612fe6565b601f198416612f9486612d70565b60005b82811015612fbc57848901518255600182019150602085019450602081019050612f97565b86831015612fd95784890151612fd5601f891682612ee2565b8355505b6001600288020188555050505b505050505050565b7f4f776e61626c653a206e6577206f776e657220697320746865207a65726f206160008201527f6464726573730000000000000000000000000000000000000000000000000000602082015250565b600061304a602683612150565b915061305582612fee565b604082019050919050565b600060208201905081810360008301526130798161303d565b9050919050565b7f4552433732313a207472616e736665722066726f6d20696e636f72726563742060008201527f6f776e6572000000000000000000000000000000000000000000000000000000602082015250565b60006130dc602583612150565b91506130e782613080565b604082019050919050565b6000602082019050818103600083015261310b816130cf565b9050919050565b7f4552433732313a207472616e7366657220746f20746865207a65726f2061646460008201527f7265737300000000000000000000000000000000000000000000000000000000602082015250565b600061316e602483612150565b915061317982613112565b604082019050919050565b6000602082019050818103600083015261319d81613161565b9050919050565b7f4f776e61626c653a2063616c6c6572206973206e6f7420746865206f776e6572600082015250565b60006131da602083612150565b91506131e5826131a4565b602082019050919050565b60006020820190508181036000830152613209816131cd565b9050919050565b7f4552433732313a20617070726f766520746f2063616c6c657200000000000000600082015250565b6000613246601983612150565b915061325182613210565b602082019050919050565b6000602082019050818103600083015261327581613239565b9050919050565b7f4552433732313a207472616e7366657220746f206e6f6e20455243373231526560008201527f63656976657220696d706c656d656e7465720000000000000000000000000000602082015250565b60006132d8603283612150565b91506132e38261327c565b604082019050919050565b60006020820190508181036000830152613307816132cb565b9050919050565b7f4e487b7100000000000000000000000000000000000000000000000000000000600052601260045260246000fd5b600081519050919050565b600082825260208201905092915050565b60006133648261333d565b61336e8185613348565b935061337e818560208601612161565b6133878161218b565b840191505092915050565b60006080820190506133a7600083018761228c565b6133b4602083018661228c565b6133c16040830185612549565b81810360608301526133d38184613359565b905095945050505050565b6000815190506133ed816120b6565b92915050565b60006020828403121561340957613408612080565b5b6000613417848285016133de565b91505092915050565b7f4552433732313a206d696e7420746f20746865207a65726f2061646472657373600082015250565b6000613456602083612150565b915061346182613420565b602082019050919050565b6000602082019050818103600083015261348581613449565b9050919050565b7f4552433732313a20746f6b656e20616c7265616479206d696e74656400000000600082015250565b60006134c2601c83612150565b91506134cd8261348c565b602082019050919050565b600060208201905081810360008301526134f1816134b5565b905091905056fea2646970667358221220d4f363cdf0ef92e96d375d18717ed638a4259ce1f46edc28b86044f75d2fa43464736f6c63430008110033",
  "linkReferences": {},
  "deployedLinkReferences": {}
}